{
  "contractName": "MetaschoolNFT",
  "abi": [
    {
      "inputs": [
        {
          "internalType": "string",
          "name": "_name",
          "type": "string"
        },
        {
          "internalType": "string",
          "name": "_symbol",
          "type": "string"
        }
      ],
      "stateMutability": "nonpayable",
      "type": "constructor"
    },
    {
      "anonymous": false,
      "inputs": [
        {
          "indexed": true,
          "internalType": "address",
          "name": "owner",
          "type": "address"
        },
        {
          "indexed": true,
          "internalType": "address",
          "name": "approved",
          "type": "address"
        },
        {
          "indexed": true,
          "internalType": "uint256",
          "name": "tokenId",
          "type": "uint256"
        }
      ],
      "name": "Approval",
      "type": "event"
    },
    {
      "anonymous": false,
      "inputs": [
        {
          "indexed": true,
          "internalType": "address",
          "name": "owner",
          "type": "address"
        },
        {
          "indexed": true,
          "internalType": "address",
          "name": "operator",
          "type": "address"
        },
        {
          "indexed": false,
          "internalType": "bool",
          "name": "approved",
          "type": "bool"
        }
      ],
      "name": "ApprovalForAll",
      "type": "event"
    },
    {
      "anonymous": false,
      "inputs": [
        {
          "indexed": true,
          "internalType": "address",
          "name": "from",
          "type": "address"
        },
        {
          "indexed": true,
          "internalType": "address",
          "name": "to",
          "type": "address"
        },
        {
          "indexed": true,
          "internalType": "uint256",
          "name": "tokenId",
          "type": "uint256"
        }
      ],
      "name": "Transfer",
      "type": "event"
    },
    {
      "inputs": [
        {
          "internalType": "address",
          "name": "to",
          "type": "address"
        },
        {
          "internalType": "uint256",
          "name": "tokenId",
          "type": "uint256"
        }
      ],
      "name": "approve",
      "outputs": [],
      "stateMutability": "nonpayable",
      "type": "function"
    },
    {
      "inputs": [
        {
          "internalType": "address",
          "name": "owner",
          "type": "address"
        }
      ],
      "name": "balanceOf",
      "outputs": [
        {
          "internalType": "uint256",
          "name": "",
          "type": "uint256"
        }
      ],
      "stateMutability": "view",
      "type": "function",
      "constant": true
    },
    {
      "inputs": [
        {
          "internalType": "uint256",
          "name": "tokenId",
          "type": "uint256"
        }
      ],
      "name": "getApproved",
      "outputs": [
        {
          "internalType": "address",
          "name": "",
          "type": "address"
        }
      ],
      "stateMutability": "view",
      "type": "function",
      "constant": true
    },
    {
      "inputs": [
        {
          "internalType": "address",
          "name": "owner",
          "type": "address"
        },
        {
          "internalType": "address",
          "name": "operator",
          "type": "address"
        }
      ],
      "name": "isApprovedForAll",
      "outputs": [
        {
          "internalType": "bool",
          "name": "",
          "type": "bool"
        }
      ],
      "stateMutability": "view",
      "type": "function",
      "constant": true
    },
    {
      "inputs": [],
      "name": "name",
      "outputs": [
        {
          "internalType": "string",
          "name": "",
          "type": "string"
        }
      ],
      "stateMutability": "view",
      "type": "function",
      "constant": true
    },
    {
      "inputs": [
        {
          "internalType": "uint256",
          "name": "tokenId",
          "type": "uint256"
        }
      ],
      "name": "ownerOf",
      "outputs": [
        {
          "internalType": "address",
          "name": "",
          "type": "address"
        }
      ],
      "stateMutability": "view",
      "type": "function",
      "constant": true
    },
    {
      "inputs": [
        {
          "internalType": "address",
          "name": "from",
          "type": "address"
        },
        {
          "internalType": "address",
          "name": "to",
          "type": "address"
        },
        {
          "internalType": "uint256",
          "name": "tokenId",
          "type": "uint256"
        }
      ],
      "name": "safeTransferFrom",
      "outputs": [],
      "stateMutability": "nonpayable",
      "type": "function"
    },
    {
      "inputs": [
        {
          "internalType": "address",
          "name": "from",
          "type": "address"
        },
        {
          "internalType": "address",
          "name": "to",
          "type": "address"
        },
        {
          "internalType": "uint256",
          "name": "tokenId",
          "type": "uint256"
        },
        {
          "internalType": "bytes",
          "name": "_data",
          "type": "bytes"
        }
      ],
      "name": "safeTransferFrom",
      "outputs": [],
      "stateMutability": "nonpayable",
      "type": "function"
    },
    {
      "inputs": [
        {
          "internalType": "address",
          "name": "operator",
          "type": "address"
        },
        {
          "internalType": "bool",
          "name": "approved",
          "type": "bool"
        }
      ],
      "name": "setApprovalForAll",
      "outputs": [],
      "stateMutability": "nonpayable",
      "type": "function"
    },
    {
      "inputs": [
        {
          "internalType": "bytes4",
          "name": "interfaceId",
          "type": "bytes4"
        }
      ],
      "name": "supportsInterface",
      "outputs": [
        {
          "internalType": "bool",
          "name": "",
          "type": "bool"
        }
      ],
      "stateMutability": "view",
      "type": "function",
      "constant": true
    },
    {
      "inputs": [],
      "name": "symbol",
      "outputs": [
        {
          "internalType": "string",
          "name": "",
          "type": "string"
        }
      ],
      "stateMutability": "view",
      "type": "function",
      "constant": true
    },
    {
      "inputs": [
        {
          "internalType": "uint256",
          "name": "tokenId",
          "type": "uint256"
        }
      ],
      "name": "tokenURI",
      "outputs": [
        {
          "internalType": "string",
          "name": "",
          "type": "string"
        }
      ],
      "stateMutability": "view",
      "type": "function",
      "constant": true
    },
    {
      "inputs": [
        {
          "internalType": "address",
          "name": "from",
          "type": "address"
        },
        {
          "internalType": "address",
          "name": "to",
          "type": "address"
        },
        {
          "internalType": "uint256",
          "name": "tokenId",
          "type": "uint256"
        }
      ],
      "name": "transferFrom",
      "outputs": [],
      "stateMutability": "nonpayable",
      "type": "function"
    },
    {
      "inputs": [
        {
          "internalType": "address",
          "name": "_newAdmin",
          "type": "address"
        }
      ],
      "name": "changeAdmin",
      "outputs": [],
      "stateMutability": "nonpayable",
      "type": "function"
    },
    {
      "inputs": [
        {
          "internalType": "address",
          "name": "_recipient",
          "type": "address"
        }
      ],
      "name": "mintForAirdrop",
      "outputs": [
        {
          "internalType": "uint256",
          "name": "",
          "type": "uint256"
        }
      ],
      "stateMutability": "nonpayable",
      "type": "function"
    }
  ],
  "bytecode": "0x608060405260405180606001604052806035815260200162003100603591396007908051906020019062000035929190620000f0565b503480156200004357600080fd5b50604051620031353803806200313583398181016040528101906200006991906200033d565b8181816000908051906020019062000083929190620000f0565b5080600190805190602001906200009c929190620000f0565b505050600060088190555033600960006101000a81548173ffffffffffffffffffffffffffffffffffffffff021916908373ffffffffffffffffffffffffffffffffffffffff160217905550505062000427565b828054620000fe90620003f1565b90600052602060002090601f0160209004810192826200012257600085556200016e565b82601f106200013d57805160ff19168380011785556200016e565b828001600101855582156200016e579182015b828111156200016d57825182559160200191906001019062000150565b5b5090506200017d919062000181565b5090565b5b808211156200019c57600081600090555060010162000182565b5090565b6000604051905090565b600080fd5b600080fd5b600080fd5b600080fd5b6000601f19601f8301169050919050565b7f4e487b7100000000000000000000000000000000000000000000000000000000600052604160045260246000fd5b6200020982620001be565b810181811067ffffffffffffffff821117156200022b576200022a620001cf565b5b80604052505050565b600062000240620001a0565b90506200024e8282620001fe565b919050565b600067ffffffffffffffff821115620002715762000270620001cf565b5b6200027c82620001be565b9050602081019050919050565b60005b83811015620002a95780820151818401526020810190506200028c565b83811115620002b9576000848401525b50505050565b6000620002d6620002d08462000253565b62000234565b905082815260208101848484011115620002f557620002f4620001b9565b5b6200030284828562000289565b509392505050565b600082601f830112620003225762000321620001b4565b5b815162000334848260208601620002bf565b91505092915050565b60008060408385031215620003575762000356620001aa565b5b600083015167ffffffffffffffff811115620003785762000377620001af565b5b62000386858286016200030a565b925050602083015167ffffffffffffffff811115620003aa57620003a9620001af565b5b620003b8858286016200030a565b9150509250929050565b7f4e487b7100000000000000000000000000000000000000000000000000000000600052602260045260246000fd5b600060028204905060018216806200040a57607f821691505b60208210811415620004215762000420620003c2565b5b50919050565b612cc980620004376000396000f3fe608060405234801561001057600080fd5b50600436106100f55760003560e01c806370a0823111610097578063a22cb46511610066578063a22cb46514610296578063b88d4fde146102b2578063c87b56dd146102ce578063e985e9c5146102fe576100f5565b806370a08231146101fc5780638f2839701461022c578063953a166e1461024857806395d89b4114610278576100f5565b8063095ea7b3116100d3578063095ea7b31461017857806323b872dd1461019457806342842e0e146101b05780636352211e146101cc576100f5565b806301ffc9a7146100fa57806306fdde031461012a578063081812fc14610148575b600080fd5b610114600480360381019061010f9190611b28565b61032e565b6040516101219190611b70565b60405180910390f35b610132610410565b60405161013f9190611c24565b60405180910390f35b610162600480360381019061015d9190611c7c565b6104a2565b60405161016f9190611cea565b60405180910390f35b610192600480360381019061018d9190611d31565b610527565b005b6101ae60048036038101906101a99190611d71565b61063f565b005b6101ca60048036038101906101c59190611d71565b61069f565b005b6101e660048036038101906101e19190611c7c565b6106bf565b6040516101f39190611cea565b60405180910390f35b61021660048036038101906102119190611dc4565b610771565b6040516102239190611e00565b60405180910390f35b61024660048036038101906102419190611dc4565b610829565b005b610262600480360381019061025d9190611dc4565b6108c7565b60405161026f9190611e00565b60405180910390f35b6102806109e9565b60405161028d9190611c24565b60405180910390f35b6102b060048036038101906102ab9190611e47565b610a7b565b005b6102cc60048036038101906102c79190611fbc565b610a91565b005b6102e860048036038101906102e39190611c7c565b610af3565b6040516102f59190611c24565b60405180910390f35b6103186004803603810190610313919061203f565b610c45565b6040516103259190611b70565b60405180910390f35b60007f80ac58cd000000000000000000000000000000000000000000000000000000007bffffffffffffffffffffffffffffffffffffffffffffffffffffffff1916827bffffffffffffffffffffffffffffffffffffffffffffffffffffffff191614806103f957507f5b5e139f000000000000000000000000000000000000000000000000000000007bffffffffffffffffffffffffffffffffffffffffffffffffffffffff1916827bffffffffffffffffffffffffffffffffffffffffffffffffffffffff1916145b80610409575061040882610cd9565b5b9050919050565b60606000805461041f906120ae565b80601f016020809104026020016040519081016040528092919081815260200182805461044b906120ae565b80156104985780601f1061046d57610100808354040283529160200191610498565b820191906000526020600020905b81548152906001019060200180831161047b57829003601f168201915b5050505050905090565b60006104ad82610d43565b6104ec576040517f08c379a00000000000000000000000000000000000000000000000000000000081526004016104e390612152565b60405180910390fd5b6004600083815260200190815260200160002060009054906101000a900473ffffffffffffffffffffffffffffffffffffffff169050919050565b6000610532826106bf565b90508073ffffffffffffffffffffffffffffffffffffffff168373ffffffffffffffffffffffffffffffffffffffff1614156105a3576040517f08c379a000000000000000000000000000000000000000000000000000000000815260040161059a906121e4565b60405180910390fd5b8073ffffffffffffffffffffffffffffffffffffffff166105c2610daf565b73ffffffffffffffffffffffffffffffffffffffff1614806105f157506105f0816105eb610daf565b610c45565b5b610630576040517f08c379a000000000000000000000000000000000000000000000000000000000815260040161062790612276565b60405180910390fd5b61063a8383610db7565b505050565b61065061064a610daf565b82610e70565b61068f576040517f08c379a000000000000000000000000000000000000000000000000000000000815260040161068690612308565b60405180910390fd5b61069a838383610f4e565b505050565b6106ba83838360405180602001604052806000815250610a91565b505050565b6000806002600084815260200190815260200160002060009054906101000a900473ffffffffffffffffffffffffffffffffffffffff169050600073ffffffffffffffffffffffffffffffffffffffff168173ffffffffffffffffffffffffffffffffffffffff161415610768576040517f08c379a000000000000000000000000000000000000000000000000000000000815260040161075f9061239a565b60405180910390fd5b80915050919050565b60008073ffffffffffffffffffffffffffffffffffffffff168273ffffffffffffffffffffffffffffffffffffffff1614156107e2576040517f08c379a00000000000000000000000000000000000000000000000000000000081526004016107d99061242c565b60405180910390fd5b600360008373ffffffffffffffffffffffffffffffffffffffff1673ffffffffffffffffffffffffffffffffffffffff168152602001908152602001600020549050919050565b600960009054906101000a900473ffffffffffffffffffffffffffffffffffffffff1673ffffffffffffffffffffffffffffffffffffffff163373ffffffffffffffffffffffffffffffffffffffff161461088357600080fd5b80600960006101000a81548173ffffffffffffffffffffffffffffffffffffffff021916908373ffffffffffffffffffffffffffffffffffffffff16021790555050565b6000600960009054906101000a900473ffffffffffffffffffffffffffffffffffffffff1673ffffffffffffffffffffffffffffffffffffffff163373ffffffffffffffffffffffffffffffffffffffff161461092357600080fd5b6000600854905061093483826111b5565b6109c88160078054610945906120ae565b80601f0160208091040260200160405190810160405280929190818152602001828054610971906120ae565b80156109be5780601f10610993576101008083540402835291602001916109be565b820191906000526020600020905b8154815290600101906020018083116109a157829003601f168201915b50505050506111d3565b600860008154809291906109db9061247b565b919050555080915050919050565b6060600180546109f8906120ae565b80601f0160208091040260200160405190810160405280929190818152602001828054610a24906120ae565b8015610a715780601f10610a4657610100808354040283529160200191610a71565b820191906000526020600020905b815481529060010190602001808311610a5457829003601f168201915b5050505050905090565b610a8d610a86610daf565b8383611247565b5050565b610aa2610a9c610daf565b83610e70565b610ae1576040517f08c379a0000000000000000000000000000000000000000000000000000000008152600401610ad890612308565b60405180910390fd5b610aed848484846113b4565b50505050565b6060610afe82610d43565b610b3d576040517f08c379a0000000000000000000000000000000000000000000000000000000008152600401610b3490612536565b60405180910390fd5b6000600660008481526020019081526020016000208054610b5d906120ae565b80601f0160208091040260200160405190810160405280929190818152602001828054610b89906120ae565b8015610bd65780601f10610bab57610100808354040283529160200191610bd6565b820191906000526020600020905b815481529060010190602001808311610bb957829003601f168201915b505050505090506000610be7611410565b9050600081511415610bfd578192505050610c40565b600082511115610c32578082604051602001610c1a929190612592565b60405160208183030381529060405292505050610c40565b610c3b84611427565b925050505b919050565b6000600560008473ffffffffffffffffffffffffffffffffffffffff1673ffffffffffffffffffffffffffffffffffffffff16815260200190815260200160002060008373ffffffffffffffffffffffffffffffffffffffff1673ffffffffffffffffffffffffffffffffffffffff16815260200190815260200160002060009054906101000a900460ff16905092915050565b60007f01ffc9a7000000000000000000000000000000000000000000000000000000007bffffffffffffffffffffffffffffffffffffffffffffffffffffffff1916827bffffffffffffffffffffffffffffffffffffffffffffffffffffffff1916149050919050565b60008073ffffffffffffffffffffffffffffffffffffffff166002600084815260200190815260200160002060009054906101000a900473ffffffffffffffffffffffffffffffffffffffff1673ffffffffffffffffffffffffffffffffffffffff1614159050919050565b600033905090565b816004600083815260200190815260200160002060006101000a81548173ffffffffffffffffffffffffffffffffffffffff021916908373ffffffffffffffffffffffffffffffffffffffff160217905550808273ffffffffffffffffffffffffffffffffffffffff16610e2a836106bf565b73ffffffffffffffffffffffffffffffffffffffff167f8c5be1e5ebec7d5bd14f71427d1e84f3dd0314c0f7b2291e5b200ac8c7c3b92560405160405180910390a45050565b6000610e7b82610d43565b610eba576040517f08c379a0000000000000000000000000000000000000000000000000000000008152600401610eb190612628565b60405180910390fd5b6000610ec5836106bf565b90508073ffffffffffffffffffffffffffffffffffffffff168473ffffffffffffffffffffffffffffffffffffffff161480610f3457508373ffffffffffffffffffffffffffffffffffffffff16610f1c846104a2565b73ffffffffffffffffffffffffffffffffffffffff16145b80610f455750610f448185610c45565b5b91505092915050565b8273ffffffffffffffffffffffffffffffffffffffff16610f6e826106bf565b73ffffffffffffffffffffffffffffffffffffffff1614610fc4576040517f08c379a0000000000000000000000000000000000000000000000000000000008152600401610fbb906126ba565b60405180910390fd5b600073ffffffffffffffffffffffffffffffffffffffff168273ffffffffffffffffffffffffffffffffffffffff161415611034576040517f08c379a000000000000000000000000000000000000000000000000000000000815260040161102b9061274c565b60405180910390fd5b61103f8383836114ce565b61104a600082610db7565b6001600360008573ffffffffffffffffffffffffffffffffffffffff1673ffffffffffffffffffffffffffffffffffffffff168152602001908152602001600020600082825461109a919061276c565b925050819055506001600360008473ffffffffffffffffffffffffffffffffffffffff1673ffffffffffffffffffffffffffffffffffffffff16815260200190815260200160002060008282546110f191906127a0565b92505081905550816002600083815260200190815260200160002060006101000a81548173ffffffffffffffffffffffffffffffffffffffff021916908373ffffffffffffffffffffffffffffffffffffffff160217905550808273ffffffffffffffffffffffffffffffffffffffff168473ffffffffffffffffffffffffffffffffffffffff167fddf252ad1be2c89b69c2b068fc378daa952ba7f163c4a11628f55a4df523b3ef60405160405180910390a46111b08383836114d3565b505050565b6111cf8282604051806020016040528060008152506114d8565b5050565b6111dc82610d43565b61121b576040517f08c379a000000000000000000000000000000000000000000000000000000000815260040161121290612868565b60405180910390fd5b80600660008481526020019081526020016000209080519060200190611242929190611a19565b505050565b8173ffffffffffffffffffffffffffffffffffffffff168373ffffffffffffffffffffffffffffffffffffffff1614156112b6576040517f08c379a00000000000000000000000000000000000000000000000000000000081526004016112ad906128d4565b60405180910390fd5b80600560008573ffffffffffffffffffffffffffffffffffffffff1673ffffffffffffffffffffffffffffffffffffffff16815260200190815260200160002060008473ffffffffffffffffffffffffffffffffffffffff1673ffffffffffffffffffffffffffffffffffffffff16815260200190815260200160002060006101000a81548160ff0219169083151502179055508173ffffffffffffffffffffffffffffffffffffffff168373ffffffffffffffffffffffffffffffffffffffff167f17307eab39ab6107e8899845ad3d59bd9653f200f220920489ca2b5937696c31836040516113a79190611b70565b60405180910390a3505050565b6113bf848484610f4e565b6113cb84848484611533565b61140a576040517f08c379a000000000000000000000000000000000000000000000000000000000815260040161140190612966565b60405180910390fd5b50505050565b606060405180602001604052806000815250905090565b606061143282610d43565b611471576040517f08c379a0000000000000000000000000000000000000000000000000000000008152600401611468906129f8565b60405180910390fd5b600061147b611410565b9050600081511161149b57604051806020016040528060008152506114c6565b806114a5846116bb565b6040516020016114b6929190612592565b6040516020818303038152906040525b915050919050565b505050565b505050565b6114e2838361181c565b6114ef6000848484611533565b61152e576040517f08c379a000000000000000000000000000000000000000000000000000000000815260040161152590612966565b60405180910390fd5b505050565b60006115548473ffffffffffffffffffffffffffffffffffffffff166119f6565b156116ae578373ffffffffffffffffffffffffffffffffffffffff1663150b7a0261157d610daf565b8786866040518563ffffffff1660e01b815260040161159f9493929190612a6d565b6020604051808303816000875af19250505080156115db57506040513d601f19601f820116820180604052508101906115d89190612ace565b60015b61165e573d806000811461160b576040519150601f19603f3d011682016040523d82523d6000602084013e611610565b606091505b50600081511415611656576040517f08c379a000000000000000000000000000000000000000000000000000000000815260040161164d90612966565b60405180910390fd5b805181602001fd5b63150b7a0260e01b7bffffffffffffffffffffffffffffffffffffffffffffffffffffffff1916817bffffffffffffffffffffffffffffffffffffffffffffffffffffffff1916149150506116b3565b600190505b949350505050565b60606000821415611703576040518060400160405280600181526020017f30000000000000000000000000000000000000000000000000000000000000008152509050611817565b600082905060005b6000821461173557808061171e9061247b565b915050600a8261172e9190612b2a565b915061170b565b60008167ffffffffffffffff81111561175157611750611e91565b5b6040519080825280601f01601f1916602001820160405280156117835781602001600182028036833780820191505090505b5090505b600085146118105760018261179c919061276c565b9150600a856117ab9190612b5b565b60306117b791906127a0565b60f81b8183815181106117cd576117cc612b8c565b5b60200101907effffffffffffffffffffffffffffffffffffffffffffffffffffffffffffff1916908160001a905350600a856118099190612b2a565b9450611787565b8093505050505b919050565b600073ffffffffffffffffffffffffffffffffffffffff168273ffffffffffffffffffffffffffffffffffffffff16141561188c576040517f08c379a000000000000000000000000000000000000000000000000000000000815260040161188390612c07565b60405180910390fd5b61189581610d43565b156118d5576040517f08c379a00000000000000000000000000000000000000000000000000000000081526004016118cc90612c73565b60405180910390fd5b6118e1600083836114ce565b6001600360008473ffffffffffffffffffffffffffffffffffffffff1673ffffffffffffffffffffffffffffffffffffffff168152602001908152602001600020600082825461193191906127a0565b92505081905550816002600083815260200190815260200160002060006101000a81548173ffffffffffffffffffffffffffffffffffffffff021916908373ffffffffffffffffffffffffffffffffffffffff160217905550808273ffffffffffffffffffffffffffffffffffffffff16600073ffffffffffffffffffffffffffffffffffffffff167fddf252ad1be2c89b69c2b068fc378daa952ba7f163c4a11628f55a4df523b3ef60405160405180910390a46119f2600083836114d3565b5050565b6000808273ffffffffffffffffffffffffffffffffffffffff163b119050919050565b828054611a25906120ae565b90600052602060002090601f016020900481019282611a475760008555611a8e565b82601f10611a6057805160ff1916838001178555611a8e565b82800160010185558215611a8e579182015b82811115611a8d578251825591602001919060010190611a72565b5b509050611a9b9190611a9f565b5090565b5b80821115611ab8576000816000905550600101611aa0565b5090565b6000604051905090565b600080fd5b600080fd5b60007fffffffff0000000000000000000000000000000000000000000000000000000082169050919050565b611b0581611ad0565b8114611b1057600080fd5b50565b600081359050611b2281611afc565b92915050565b600060208284031215611b3e57611b3d611ac6565b5b6000611b4c84828501611b13565b91505092915050565b60008115159050919050565b611b6a81611b55565b82525050565b6000602082019050611b856000830184611b61565b92915050565b600081519050919050565b600082825260208201905092915050565b60005b83811015611bc5578082015181840152602081019050611baa565b83811115611bd4576000848401525b50505050565b6000601f19601f8301169050919050565b6000611bf682611b8b565b611c008185611b96565b9350611c10818560208601611ba7565b611c1981611bda565b840191505092915050565b60006020820190508181036000830152611c3e8184611beb565b905092915050565b6000819050919050565b611c5981611c46565b8114611c6457600080fd5b50565b600081359050611c7681611c50565b92915050565b600060208284031215611c9257611c91611ac6565b5b6000611ca084828501611c67565b91505092915050565b600073ffffffffffffffffffffffffffffffffffffffff82169050919050565b6000611cd482611ca9565b9050919050565b611ce481611cc9565b82525050565b6000602082019050611cff6000830184611cdb565b92915050565b611d0e81611cc9565b8114611d1957600080fd5b50565b600081359050611d2b81611d05565b92915050565b60008060408385031215611d4857611d47611ac6565b5b6000611d5685828601611d1c565b9250506020611d6785828601611c67565b9150509250929050565b600080600060608486031215611d8a57611d89611ac6565b5b6000611d9886828701611d1c565b9350506020611da986828701611d1c565b9250506040611dba86828701611c67565b9150509250925092565b600060208284031215611dda57611dd9611ac6565b5b6000611de884828501611d1c565b91505092915050565b611dfa81611c46565b82525050565b6000602082019050611e156000830184611df1565b92915050565b611e2481611b55565b8114611e2f57600080fd5b50565b600081359050611e4181611e1b565b92915050565b60008060408385031215611e5e57611e5d611ac6565b5b6000611e6c85828601611d1c565b9250506020611e7d85828601611e32565b9150509250929050565b600080fd5b600080fd5b7f4e487b7100000000000000000000000000000000000000000000000000000000600052604160045260246000fd5b611ec982611bda565b810181811067ffffffffffffffff82111715611ee857611ee7611e91565b5b80604052505050565b6000611efb611abc565b9050611f078282611ec0565b919050565b600067ffffffffffffffff821115611f2757611f26611e91565b5b611f3082611bda565b9050602081019050919050565b82818337600083830152505050565b6000611f5f611f5a84611f0c565b611ef1565b905082815260208101848484011115611f7b57611f7a611e8c565b5b611f86848285611f3d565b509392505050565b600082601f830112611fa357611fa2611e87565b5b8135611fb3848260208601611f4c565b91505092915050565b60008060008060808587031215611fd657611fd5611ac6565b5b6000611fe487828801611d1c565b9450506020611ff587828801611d1c565b935050604061200687828801611c67565b925050606085013567ffffffffffffffff81111561202757612026611acb565b5b61203387828801611f8e565b91505092959194509250565b6000806040838503121561205657612055611ac6565b5b600061206485828601611d1c565b925050602061207585828601611d1c565b9150509250929050565b7f4e487b7100000000000000000000000000000000000000000000000000000000600052602260045260246000fd5b600060028204905060018216806120c657607f821691505b602082108114156120da576120d961207f565b5b50919050565b7f4552433732313a20617070726f76656420717565727920666f72206e6f6e657860008201527f697374656e7420746f6b656e0000000000000000000000000000000000000000602082015250565b600061213c602c83611b96565b9150612147826120e0565b604082019050919050565b6000602082019050818103600083015261216b8161212f565b9050919050565b7f4552433732313a20617070726f76616c20746f2063757272656e74206f776e6560008201527f7200000000000000000000000000000000000000000000000000000000000000602082015250565b60006121ce602183611b96565b91506121d982612172565b604082019050919050565b600060208201905081810360008301526121fd816121c1565b9050919050565b7f4552433732313a20617070726f76652063616c6c6572206973206e6f74206f7760008201527f6e6572206e6f7220617070726f76656420666f7220616c6c0000000000000000602082015250565b6000612260603883611b96565b915061226b82612204565b604082019050919050565b6000602082019050818103600083015261228f81612253565b9050919050565b7f4552433732313a207472616e736665722063616c6c6572206973206e6f74206f60008201527f776e6572206e6f7220617070726f766564000000000000000000000000000000602082015250565b60006122f2603183611b96565b91506122fd82612296565b604082019050919050565b60006020820190508181036000830152612321816122e5565b9050919050565b7f4552433732313a206f776e657220717565727920666f72206e6f6e657869737460008201527f656e7420746f6b656e0000000000000000000000000000000000000000000000602082015250565b6000612384602983611b96565b915061238f82612328565b604082019050919050565b600060208201905081810360008301526123b381612377565b9050919050565b7f4552433732313a2062616c616e636520717565727920666f7220746865207a6560008201527f726f206164647265737300000000000000000000000000000000000000000000602082015250565b6000612416602a83611b96565b9150612421826123ba565b604082019050919050565b6000602082019050818103600083015261244581612409565b9050919050565b7f4e487b7100000000000000000000000000000000000000000000000000000000600052601160045260246000fd5b600061248682611c46565b91507fffffffffffffffffffffffffffffffffffffffffffffffffffffffffffffffff8214156124b9576124b861244c565b5b600182019050919050565b7f45524337323155524953746f726167653a2055524920717565727920666f722060008201527f6e6f6e6578697374656e7420746f6b656e000000000000000000000000000000602082015250565b6000612520603183611b96565b915061252b826124c4565b604082019050919050565b6000602082019050818103600083015261254f81612513565b9050919050565b600081905092915050565b600061256c82611b8b565b6125768185612556565b9350612586818560208601611ba7565b80840191505092915050565b600061259e8285612561565b91506125aa8284612561565b91508190509392505050565b7f4552433732313a206f70657261746f7220717565727920666f72206e6f6e657860008201527f697374656e7420746f6b656e0000000000000000000000000000000000000000602082015250565b6000612612602c83611b96565b915061261d826125b6565b604082019050919050565b6000602082019050818103600083015261264181612605565b9050919050565b7f4552433732313a207472616e736665722066726f6d20696e636f72726563742060008201527f6f776e6572000000000000000000000000000000000000000000000000000000602082015250565b60006126a4602583611b96565b91506126af82612648565b604082019050919050565b600060208201905081810360008301526126d381612697565b9050919050565b7f4552433732313a207472616e7366657220746f20746865207a65726f2061646460008201527f7265737300000000000000000000000000000000000000000000000000000000602082015250565b6000612736602483611b96565b9150612741826126da565b604082019050919050565b6000602082019050818103600083015261276581612729565b9050919050565b600061277782611c46565b915061278283611c46565b9250828210156127955761279461244c565b5b828203905092915050565b60006127ab82611c46565b91506127b683611c46565b9250827fffffffffffffffffffffffffffffffffffffffffffffffffffffffffffffffff038211156127eb576127ea61244c565b5b828201905092915050565b7f45524337323155524953746f726167653a2055524920736574206f66206e6f6e60008201527f6578697374656e7420746f6b656e000000000000000000000000000000000000602082015250565b6000612852602e83611b96565b915061285d826127f6565b604082019050919050565b6000602082019050818103600083015261288181612845565b9050919050565b7f4552433732313a20617070726f766520746f2063616c6c657200000000000000600082015250565b60006128be601983611b96565b91506128c982612888565b602082019050919050565b600060208201905081810360008301526128ed816128b1565b9050919050565b7f4552433732313a207472616e7366657220746f206e6f6e20455243373231526560008201527f63656976657220696d706c656d656e7465720000000000000000000000000000602082015250565b6000612950603283611b96565b915061295b826128f4565b604082019050919050565b6000602082019050818103600083015261297f81612943565b9050919050565b7f4552433732314d657461646174613a2055524920717565727920666f72206e6f60008201527f6e6578697374656e7420746f6b656e0000000000000000000000000000000000602082015250565b60006129e2602f83611b96565b91506129ed82612986565b604082019050919050565b60006020820190508181036000830152612a11816129d5565b9050919050565b600081519050919050565b600082825260208201905092915050565b6000612a3f82612a18565b612a498185612a23565b9350612a59818560208601611ba7565b612a6281611bda565b840191505092915050565b6000608082019050612a826000830187611cdb565b612a8f6020830186611cdb565b612a9c6040830185611df1565b8181036060830152612aae8184612a34565b905095945050505050565b600081519050612ac881611afc565b92915050565b600060208284031215612ae457612ae3611ac6565b5b6000612af284828501612ab9565b91505092915050565b7f4e487b7100000000000000000000000000000000000000000000000000000000600052601260045260246000fd5b6000612b3582611c46565b9150612b4083611c46565b925082612b5057612b4f612afb565b5b828204905092915050565b6000612b6682611c46565b9150612b7183611c46565b925082612b8157612b80612afb565b5b828206905092915050565b7f4e487b7100000000000000000000000000000000000000000000000000000000600052603260045260246000fd5b7f4552433732313a206d696e7420746f20746865207a65726f2061646472657373600082015250565b6000612bf1602083611b96565b9150612bfc82612bbb565b602082019050919050565b60006020820190508181036000830152612c2081612be4565b9050919050565b7f4552433732313a20746f6b656e20616c7265616479206d696e74656400000000600082015250565b6000612c5d601c83611b96565b9150612c6882612c27565b602082019050919050565b60006020820190508181036000830152612c8c81612c50565b905091905056fea26469706673582212204dca5cee8767ef8fb798a4f624ad15384add7714766605d56b3ab006f78ff7d164736f6c634300080b0033697066733a2f2f516d6253777670343954583234544862354e7433666a6f566438644237664d4d584a50674347347031577457615a",
  "immutableReferences": {},
  "source": "//SPDX-License-Identifier: MIT\npragma solidity ^0.8.11;\nimport './ERC721URIStorage.sol';\n\ncontract MetaschoolNFT is ERC721URIStorage{\n    string _hostedMetadataURI = \"ipfs://QmbSwvp49TX24THb5Nt3fjoVd8dB7fMMXJPgCG4p1WtWaZ\";\n    uint256 tokenCounter;\n    address admin;\n    constructor(string memory _name, string memory _symbol)ERC721(_name, _symbol){\n        tokenCounter =0;\n        admin = msg.sender;\n\n    }\n\n\n    modifier _onlyAdmin(){\n        require(msg.sender == admin);\n        _;\n    }\n\n    function changeAdmin(address _newAdmin) public _onlyAdmin {\n        admin = _newAdmin;\n    }\n\n    function mintForAirdrop(address _recipient) _onlyAdmin public returns (uint256){\n        uint256 newNftId = tokenCounter;\n        _safeMint(_recipient, newNftId);\n        _setTokenURI(newNftId,_hostedMetadataURI);\n        tokenCounter++;\n        return newNftId;\n    }\n\n\n\n\n}",
  "sourcePath": "/home/falcon46/Documents/Portfolio/Metaschool_ERC721/contracts/MetaschoolNFT.sol",
  "compiler": {
    "name": "solc",
    "version": "0.8.11+commit.d7f03943.Emscripten.clang"
  },
  "schemaVersion": "3.4.4",
  "updatedAt": "2022-02-10T17:15:03.885Z",
  "networkType": "ethereum",
  "devdoc": {
    "kind": "dev",
    "methods": {
      "approve(address,uint256)": {
        "details": "See {IERC721-approve}."
      },
      "balanceOf(address)": {
        "details": "See {IERC721-balanceOf}."
      },
      "getApproved(uint256)": {
        "details": "See {IERC721-getApproved}."
      },
      "isApprovedForAll(address,address)": {
        "details": "See {IERC721-isApprovedForAll}."
      },
      "name()": {
        "details": "See {IERC721Metadata-name}."
      },
      "ownerOf(uint256)": {
        "details": "See {IERC721-ownerOf}."
      },
      "safeTransferFrom(address,address,uint256)": {
        "details": "See {IERC721-safeTransferFrom}."
      },
      "safeTransferFrom(address,address,uint256,bytes)": {
        "details": "See {IERC721-safeTransferFrom}."
      },
      "setApprovalForAll(address,bool)": {
        "details": "See {IERC721-setApprovalForAll}."
      },
      "supportsInterface(bytes4)": {
        "details": "See {IERC165-supportsInterface}."
      },
      "symbol()": {
        "details": "See {IERC721Metadata-symbol}."
      },
      "tokenURI(uint256)": {
        "details": "See {IERC721Metadata-tokenURI}."
      },
      "transferFrom(address,address,uint256)": {
        "details": "See {IERC721-transferFrom}."
      }
    },
    "version": 1
  },
  "userdoc": {
    "kind": "user",
    "methods": {},
    "version": 1
  }
}